{
  "_format": "hh3-artifact-1",
  "contractName": "CardGame",
  "sourceName": "contracts/CardGame.sol",
  "abi": [
    {
      "inputs": [
        {
          "internalType": "address",
          "name": "_treasury",
          "type": "address"
        }
      ],
      "stateMutability": "nonpayable",
      "type": "constructor"
    },
    {
      "anonymous": false,
      "inputs": [
        {
          "indexed": false,
          "internalType": "address",
          "name": "player",
          "type": "address"
        },
        {
          "indexed": false,
          "internalType": "uint256",
          "name": "team",
          "type": "uint256"
        },
        {
          "indexed": false,
          "internalType": "uint256",
          "name": "cardId",
          "type": "uint256"
        },
        {
          "indexed": false,
          "internalType": "uint256",
          "name": "damage",
          "type": "uint256"
        }
      ],
      "name": "CardPlayed",
      "type": "event"
    },
    {
      "anonymous": false,
      "inputs": [
        {
          "indexed": false,
          "internalType": "uint256",
          "name": "gameId",
          "type": "uint256"
        },
        {
          "indexed": false,
          "internalType": "address",
          "name": "winner",
          "type": "address"
        },
        {
          "indexed": false,
          "internalType": "uint256",
          "name": "totalPool",
          "type": "uint256"
        },
        {
          "indexed": false,
          "internalType": "uint256",
          "name": "fee",
          "type": "uint256"
        },
        {
          "indexed": false,
          "internalType": "uint256",
          "name": "payout",
          "type": "uint256"
        },
        {
          "indexed": false,
          "internalType": "bytes32",
          "name": "txHash",
          "type": "bytes32"
        },
        {
          "indexed": false,
          "internalType": "uint256",
          "name": "timestamp",
          "type": "uint256"
        }
      ],
      "name": "GameCompleted",
      "type": "event"
    },
    {
      "anonymous": false,
      "inputs": [
        {
          "indexed": false,
          "internalType": "uint256",
          "name": "winningTeam",
          "type": "uint256"
        },
        {
          "indexed": false,
          "internalType": "uint256",
          "name": "totalPrize",
          "type": "uint256"
        }
      ],
      "name": "GameEnded",
      "type": "event"
    },
    {
      "anonymous": false,
      "inputs": [
        {
          "indexed": false,
          "internalType": "uint256",
          "name": "gameId",
          "type": "uint256"
        }
      ],
      "name": "GameStarted",
      "type": "event"
    },
    {
      "anonymous": false,
      "inputs": [
        {
          "indexed": false,
          "internalType": "address",
          "name": "player",
          "type": "address"
        },
        {
          "indexed": false,
          "internalType": "uint256",
          "name": "amount",
          "type": "uint256"
        }
      ],
      "name": "PayoutSent",
      "type": "event"
    },
    {
      "anonymous": false,
      "inputs": [
        {
          "indexed": false,
          "internalType": "uint256",
          "name": "gameId",
          "type": "uint256"
        },
        {
          "indexed": false,
          "internalType": "address",
          "name": "player",
          "type": "address"
        },
        {
          "indexed": false,
          "internalType": "uint256",
          "name": "team",
          "type": "uint256"
        }
      ],
      "name": "PlayerJoined",
      "type": "event"
    },
    {
      "inputs": [],
      "name": "ENTRY_FEE",
      "outputs": [
        {
          "internalType": "uint256",
          "name": "",
          "type": "uint256"
        }
      ],
      "stateMutability": "view",
      "type": "function"
    },
    {
      "inputs": [],
      "name": "MAX_HP",
      "outputs": [
        {
          "internalType": "uint256",
          "name": "",
          "type": "uint256"
        }
      ],
      "stateMutability": "view",
      "type": "function"
    },
    {
      "inputs": [],
      "name": "OWNER_WALLET",
      "outputs": [
        {
          "internalType": "address",
          "name": "",
          "type": "address"
        }
      ],
      "stateMutability": "view",
      "type": "function"
    },
    {
      "inputs": [],
      "name": "PLATFORM_TREASURY",
      "outputs": [
        {
          "internalType": "address",
          "name": "",
          "type": "address"
        }
      ],
      "stateMutability": "view",
      "type": "function"
    },
    {
      "inputs": [
        {
          "internalType": "uint256",
          "name": "",
          "type": "uint256"
        }
      ],
      "name": "bluePlayer",
      "outputs": [
        {
          "internalType": "address",
          "name": "",
          "type": "address"
        }
      ],
      "stateMutability": "view",
      "type": "function"
    },
    {
      "inputs": [
        {
          "internalType": "uint256",
          "name": "",
          "type": "uint256"
        }
      ],
      "name": "cards",
      "outputs": [
        {
          "internalType": "uint256",
          "name": "attack",
          "type": "uint256"
        }
      ],
      "stateMutability": "view",
      "type": "function"
    },
    {
      "inputs": [],
      "name": "currentTeamTurn",
      "outputs": [
        {
          "internalType": "uint256",
          "name": "",
          "type": "uint256"
        }
      ],
      "stateMutability": "view",
      "type": "function"
    },
    {
      "inputs": [],
      "name": "gameActive",
      "outputs": [
        {
          "internalType": "bool",
          "name": "",
          "type": "bool"
        }
      ],
      "stateMutability": "view",
      "type": "function"
    },
    {
      "inputs": [],
      "name": "gameId",
      "outputs": [
        {
          "internalType": "uint256",
          "name": "",
          "type": "uint256"
        }
      ],
      "stateMutability": "view",
      "type": "function"
    },
    {
      "inputs": [
        {
          "internalType": "uint256",
          "name": "",
          "type": "uint256"
        }
      ],
      "name": "gamePrizePool",
      "outputs": [
        {
          "internalType": "uint256",
          "name": "",
          "type": "uint256"
        }
      ],
      "stateMutability": "view",
      "type": "function"
    },
    {
      "inputs": [],
      "name": "getGameState",
      "outputs": [
        {
          "internalType": "bool",
          "name": "active",
          "type": "bool"
        },
        {
          "internalType": "uint256",
          "name": "turn",
          "type": "uint256"
        },
        {
          "internalType": "uint256",
          "name": "winner",
          "type": "uint256"
        },
        {
          "internalType": "uint256",
          "name": "hp1",
          "type": "uint256"
        },
        {
          "internalType": "uint256",
          "name": "hp2",
          "type": "uint256"
        },
        {
          "internalType": "uint256",
          "name": "count1",
          "type": "uint256"
        },
        {
          "internalType": "uint256",
          "name": "count2",
          "type": "uint256"
        },
        {
          "internalType": "uint256",
          "name": "cards1",
          "type": "uint256"
        },
        {
          "internalType": "uint256",
          "name": "cards2",
          "type": "uint256"
        },
        {
          "internalType": "uint256",
          "name": "currentGameId",
          "type": "uint256"
        },
        {
          "internalType": "uint256",
          "name": "prizePool",
          "type": "uint256"
        }
      ],
      "stateMutability": "view",
      "type": "function"
    },
    {
      "inputs": [],
      "name": "getMyDeck",
      "outputs": [
        {
          "internalType": "uint256[]",
          "name": "",
          "type": "uint256[]"
        }
      ],
      "stateMutability": "view",
      "type": "function"
    },
    {
      "inputs": [],
      "name": "joinGame",
      "outputs": [],
      "stateMutability": "payable",
      "type": "function"
    },
    {
      "inputs": [
        {
          "internalType": "uint256",
          "name": "index",
          "type": "uint256"
        }
      ],
      "name": "playCard",
      "outputs": [],
      "stateMutability": "nonpayable",
      "type": "function"
    },
    {
      "inputs": [
        {
          "internalType": "uint256",
          "name": "",
          "type": "uint256"
        },
        {
          "internalType": "address",
          "name": "",
          "type": "address"
        }
      ],
      "name": "players",
      "outputs": [
        {
          "internalType": "uint256",
          "name": "team",
          "type": "uint256"
        },
        {
          "internalType": "bool",
          "name": "hasJoined",
          "type": "bool"
        }
      ],
      "stateMutability": "view",
      "type": "function"
    },
    {
      "inputs": [
        {
          "internalType": "uint256",
          "name": "",
          "type": "uint256"
        }
      ],
      "name": "redPlayer",
      "outputs": [
        {
          "internalType": "address",
          "name": "",
          "type": "address"
        }
      ],
      "stateMutability": "view",
      "type": "function"
    },
    {
      "inputs": [],
      "name": "resetGame",
      "outputs": [],
      "stateMutability": "nonpayable",
      "type": "function"
    },
    {
      "inputs": [],
      "name": "startGame",
      "outputs": [],
      "stateMutability": "nonpayable",
      "type": "function"
    },
    {
      "inputs": [
        {
          "internalType": "uint256",
          "name": "",
          "type": "uint256"
        }
      ],
      "name": "teamCards",
      "outputs": [
        {
          "internalType": "uint256",
          "name": "",
          "type": "uint256"
        }
      ],
      "stateMutability": "view",
      "type": "function"
    },
    {
      "inputs": [
        {
          "internalType": "uint256",
          "name": "",
          "type": "uint256"
        }
      ],
      "name": "teamHP",
      "outputs": [
        {
          "internalType": "uint256",
          "name": "",
          "type": "uint256"
        }
      ],
      "stateMutability": "view",
      "type": "function"
    },
    {
      "inputs": [],
      "name": "winnerTeam",
      "outputs": [
        {
          "internalType": "uint256",
          "name": "",
          "type": "uint256"
        }
      ],
      "stateMutability": "view",
      "type": "function"
    }
  ],
  "bytecode": "0x608060405234801562000010575f80fd5b50604051620028e9380380620028e98339818101604052810190620000369190620001d7565b7207c93eb56b0e3b81f5632b26499356501bfde5600b5f6101000a81548173ffffffffffffffffffffffffffffffffffffffff021916908373ffffffffffffffffffffffffffffffffffffffff160217905550604051806020016040528060058152505f808081526020019081526020015f205f820151815f0155905050604051806020016040528060088152505f80600181526020019081526020015f205f820151815f0155905050604051806020016040528060038152505f80600281526020019081526020015f205f820151815f01559050506040518060200160405280600c8152505f80600381526020019081526020015f205f820151815f0155905050604051806020016040528060068152505f80600481526020019081526020015f205f820151815f0155905050600180819055505062000207565b5f80fd5b5f73ffffffffffffffffffffffffffffffffffffffff82169050919050565b5f620001a18262000176565b9050919050565b620001b38162000195565b8114620001be575f80fd5b50565b5f81519050620001d181620001a8565b92915050565b5f60208284031215620001ef57620001ee62000172565b5b5f620001fe84828501620001c1565b91505092915050565b6126d480620002155f395ff3fe608060405260043610610129575f3560e01c8063b797999b116100aa578063d65ab5f21161006e578063d65ab5f2146103e4578063d7c81b55146103fa578063f020044f14610424578063f6d361cc1461044e578063fae36afb14610478578063febefce5146104a257610129565b8063b797999b14610317578063b7d0628b14610353578063bb47221914610387578063c0f809211461039d578063d4f77b1c146103da57610129565b80638a7acea2116100f15780638a7acea2146102235780638dc107681461024b578063a5343f3114610287578063aaebf0bc146102c3578063ac614158146102ed57610129565b806303697fbb1461012d5780631fd4503a146101575780633d9c5f37146101935780634a0d489c146101bd57806361ec2be5146101f9575b5f80fd5b348015610138575f80fd5b506101416104de565b60405161014e9190611b36565b60405180910390f35b348015610162575f80fd5b5061017d60048036038101906101789190611b7d565b6104e4565b60405161018a9190611be7565b60405180910390f35b34801561019e575f80fd5b506101a7610514565b6040516101b49190611b36565b60405180910390f35b3480156101c8575f80fd5b506101e360048036038101906101de9190611b7d565b610519565b6040516101f09190611be7565b60405180910390f35b348015610204575f80fd5b5061020d610549565b60405161021a9190611b36565b60405180910390f35b34801561022e575f80fd5b5061024960048036038101906102449190611b7d565b61054f565b005b348015610256575f80fd5b50610271600480360381019061026c9190611b7d565b61091e565b60405161027e9190611b36565b60405180910390f35b348015610292575f80fd5b506102ad60048036038101906102a89190611b7d565b610937565b6040516102ba9190611b36565b60405180910390f35b3480156102ce575f80fd5b506102d761094c565b6040516102e49190611cb7565b60405180910390f35b3480156102f8575f80fd5b506103016109f0565b60405161030e9190611be7565b60405180910390f35b348015610322575f80fd5b5061033d60048036038101906103389190611b7d565b610a15565b60405161034a9190611b36565b60405180910390f35b34801561035e575f80fd5b50610367610a2a565b60405161037e9b9a99989796959493929190611cf1565b60405180910390f35b348015610392575f80fd5b5061039b610bbc565b005b3480156103a8575f80fd5b506103c360048036038101906103be9190611dc4565b610bc6565b6040516103d1929190611e02565b60405180910390f35b6103e2610bfe565b005b3480156103ef575f80fd5b506103f861134f565b005b348015610405575f80fd5b5061040e6115e7565b60405161041b9190611b36565b60405180910390f35b34801561042f575f80fd5b506104386115ed565b6040516104459190611e29565b60405180910390f35b348015610459575f80fd5b506104626115ff565b60405161046f9190611b36565b60405180910390f35b348015610483575f80fd5b5061048c61160a565b6040516104999190611be7565b60405180910390f35b3480156104ad575f80fd5b506104c860048036038101906104c39190611b7d565b611621565b6040516104d59190611b36565b60405180910390f35b600a5481565b6003602052805f5260405f205f915054906101000a900473ffffffffffffffffffffffffffffffffffffffff1681565b606481565b6002602052805f5260405f205f915054906101000a900473ffffffffffffffffffffffffffffffffffffffff1681565b60085481565b60095f9054906101000a900460ff1661059d576040517f08c379a000000000000000000000000000000000000000000000000000000000815260040161059490611e9c565b60405180910390fd5b5f60045f60015481526020019081526020015f205f3373ffffffffffffffffffffffffffffffffffffffff1673ffffffffffffffffffffffffffffffffffffffff1681526020019081526020015f209050806002015f9054906101000a900460ff1661063e576040517f08c379a000000000000000000000000000000000000000000000000000000000815260040161063590611f04565b60405180910390fd5b600854816001015414610686576040517f08c379a000000000000000000000000000000000000000000000000000000000815260040161067d90611f6c565b60405180910390fd5b805f018054905082106106ce576040517f08c379a00000000000000000000000000000000000000000000000000000000081526004016106c590611fd4565b60405180910390fd5b5f815f0183815481106106e4576106e3611ff2565b5b905f5260205f20015490505f805f8381526020019081526020015f205f015490505f600184600101541461071957600161071c565b60025b60ff1690508160055f8381526020019081526020015f205411610766575f60055f8381526020019081526020015f208190555061075d846001015433611636565b5050505061091b565b8160055f8381526020019081526020015f205f828254610786919061204c565b925050819055507fb6af648b8ac0d77aa88d4468aed1b5b539a45e0d67a028a643dee3f7efeb004233856001015485856040516107c6949392919061207f565b60405180910390a1835f016001855f01805490506107e4919061204c565b815481106107f5576107f4611ff2565b5b905f5260205f200154845f01868154811061081357610812611ff2565b5b905f5260205f200181905550835f01805480610832576108316120c2565b5b600190038181905f5260205f20015f9055905560065f856001015481526020019081526020015f205f81548092919061086a906120ef565b91905055505f60065f8381526020019081526020015f20540361090f575f60065f866001015481526020019081526020015f205411156108bb576108b2846001015433611636565b5050505061091b565b60055f8281526020019081526020015f205460055f866001015481526020019081526020015f2054106108fb576108f6846001015433611636565b610906565b6109058133611636565b5b5050505061091b565b80600881905550505050505b50565b5f602052805f5260405f205f91509050805f0154905081565b6007602052805f5260405f205f915090505481565b606060045f60015481526020019081526020015f205f3373ffffffffffffffffffffffffffffffffffffffff1673ffffffffffffffffffffffffffffffffffffffff1681526020019081526020015f205f018054806020026020016040519081016040528092919081815260200182805480156109e657602002820191905f5260205f20905b8154815260200190600101908083116109d2575b5050505050905090565b600b5f9054906101000a900473ffffffffffffffffffffffffffffffffffffffff1681565b6005602052805f5260405f205f915090505481565b5f805f805f805f805f805f805f73ffffffffffffffffffffffffffffffffffffffff1660025f60015481526020019081526020015f205f9054906101000a900473ffffffffffffffffffffffffffffffffffffffff1673ffffffffffffffffffffffffffffffffffffffff1603610aa1575f610aa4565b60015b60ff1690505f8073ffffffffffffffffffffffffffffffffffffffff1660035f60015481526020019081526020015f205f9054906101000a900473ffffffffffffffffffffffffffffffffffffffff1673ffffffffffffffffffffffffffffffffffffffff1603610b15575f610b18565b60015b60ff16905060095f9054906101000a900460ff16600854600a5460055f600181526020019081526020015f205460055f600281526020019081526020015f2054868660065f600181526020019081526020015f205460065f600281526020019081526020015f205460015460075f60015481526020019081526020015f20549c509c509c509c509c509c509c509c509c509c509c505050909192939495969798999a565b610bc46118bb565b565b6004602052815f5260405f20602052805f5260405f205f9150915050806001015490806002015f9054906101000a900460ff16905082565b60095f9054906101000a900460ff1680610c1a57505f600a5414155b80610ced57505f73ffffffffffffffffffffffffffffffffffffffff1660025f60015481526020019081526020015f205f9054906101000a900473ffffffffffffffffffffffffffffffffffffffff1673ffffffffffffffffffffffffffffffffffffffff1614158015610cec57505f73ffffffffffffffffffffffffffffffffffffffff1660035f60015481526020019081526020015f205f9054906101000a900473ffffffffffffffffffffffffffffffffffffffff1673ffffffffffffffffffffffffffffffffffffffff1614155b5b15610cfb57610cfa6118bb565b5b6617cd9d4ffec000341015610d45576040517f08c379a0000000000000000000000000000000000000000000000000000000008152600401610d3c90612160565b60405180910390fd5b60045f60015481526020019081526020015f205f3373ffffffffffffffffffffffffffffffffffffffff1673ffffffffffffffffffffffffffffffffffffffff1681526020019081526020015f206002015f9054906101000a900460ff1615610de3576040517f08c379a0000000000000000000000000000000000000000000000000000000008152600401610dda906121c8565b60405180910390fd5b5f8060025f60015481526020019081526020015f205f9054906101000a900473ffffffffffffffffffffffffffffffffffffffff1690505f60035f60015481526020019081526020015f205f9054906101000a900473ffffffffffffffffffffffffffffffffffffffff1690505f73ffffffffffffffffffffffffffffffffffffffff168273ffffffffffffffffffffffffffffffffffffffff16148015610eb657505f73ffffffffffffffffffffffffffffffffffffffff168173ffffffffffffffffffffffffffffffffffffffff16145b15610fb8575f6002423344600154604051602001610ed7949392919061224b565b604051602081830303815290604052805190602001205f1c610ef991906122c5565b90505f8103610f5c57600193503360025f60015481526020019081526020015f205f6101000a81548173ffffffffffffffffffffffffffffffffffffffff021916908373ffffffffffffffffffffffffffffffffffffffff160217905550610fb2565b600293503360035f60015481526020019081526020015f205f6101000a81548173ffffffffffffffffffffffffffffffffffffffff021916908373ffffffffffffffffffffffffffffffffffffffff1602179055505b5061110f565b5f73ffffffffffffffffffffffffffffffffffffffff168273ffffffffffffffffffffffffffffffffffffffff160361104557600192503360025f60015481526020019081526020015f205f6101000a81548173ffffffffffffffffffffffffffffffffffffffff021916908373ffffffffffffffffffffffffffffffffffffffff16021790555061110e565b5f73ffffffffffffffffffffffffffffffffffffffff168173ffffffffffffffffffffffffffffffffffffffff16036110d257600292503360035f60015481526020019081526020015f205f6101000a81548173ffffffffffffffffffffffffffffffffffffffff021916908373ffffffffffffffffffffffffffffffffffffffff16021790555061110d565b6040517f08c379a000000000000000000000000000000000000000000000000000000000815260040161110490612365565b60405180910390fd5b5b5b60405180606001604052805f67ffffffffffffffff81111561113457611133612383565b5b6040519080825280602002602001820160405280156111625781602001602082028036833780820191505090505b5081526020018481526020016001151581525060045f60015481526020019081526020015f205f3373ffffffffffffffffffffffffffffffffffffffff1673ffffffffffffffffffffffffffffffffffffffff1681526020019081526020015f205f820151815f0190805190602001906111dd929190611ab8565b50602082015181600101556040820151816002015f6101000a81548160ff0219169083151502179055509050503460075f60015481526020019081526020015f205f82825461122c91906123b0565b925050819055507f03dfbe1fcb4e2d61f3b4a0c93d8f814c92250618b3387f396cc9fc9fafe2c2036001543385604051611268939291906123e3565b60405180910390a15f73ffffffffffffffffffffffffffffffffffffffff1660025f60015481526020019081526020015f205f9054906101000a900473ffffffffffffffffffffffffffffffffffffffff1673ffffffffffffffffffffffffffffffffffffffff161415801561133c57505f73ffffffffffffffffffffffffffffffffffffffff1660035f60015481526020019081526020015f205f9054906101000a900473ffffffffffffffffffffffffffffffffffffffff1673ffffffffffffffffffffffffffffffffffffffff1614155b1561134a5761134961134f565b5b505050565b60095f9054906101000a900460ff161561139e576040517f08c379a000000000000000000000000000000000000000000000000000000000815260040161139590612462565b60405180910390fd5b5f73ffffffffffffffffffffffffffffffffffffffff1660025f60015481526020019081526020015f205f9054906101000a900473ffffffffffffffffffffffffffffffffffffffff1673ffffffffffffffffffffffffffffffffffffffff161415801561146a57505f73ffffffffffffffffffffffffffffffffffffffff1660035f60015481526020019081526020015f205f9054906101000a900473ffffffffffffffffffffffffffffffffffffffff1673ffffffffffffffffffffffffffffffffffffffff1614155b6114a9576040517f08c379a00000000000000000000000000000000000000000000000000000000081526004016114a0906124ca565b60405180910390fd5b6114e660025f60015481526020019081526020015f205f9054906101000a900473ffffffffffffffffffffffffffffffffffffffff166005611959565b61152360035f60015481526020019081526020015f205f9054906101000a900473ffffffffffffffffffffffffffffffffffffffff166005611959565b606460055f600181526020019081526020015f2081905550606460055f600281526020019081526020015f2081905550600560065f600181526020019081526020015f2081905550600560065f600281526020019081526020015f20819055506001600881905550600160095f6101000a81548160ff0219169083151502179055505f600a819055507f50ad08f58a27f2851d7e3a1b3a6a46b290f2ce677e99642d30ff639721e777906001546040516115dd9190611b36565b60405180910390a1565b60015481565b60095f9054906101000a900460ff1681565b6617cd9d4ffec00081565b7207c93eb56b0e3b81f5632b26499356501bfde581565b6006602052805f5260405f205f915090505481565b5f60095f6101000a81548160ff02191690831515021790555081600a819055505f60075f60015481526020019081526020015f205490505f811180156116a857505f73ffffffffffffffffffffffffffffffffffffffff168273ffffffffffffffffffffffffffffffffffffffff1614155b156117fb575f60646003836116bd91906124e8565b6116c79190612529565b90505f81836116d6919061204c565b90508373ffffffffffffffffffffffffffffffffffffffff166108fc8290811502906040515f60405180830381858888f1935050505015801561171b573d5f803e3d5ffd5b507f6c114f03096d92b098f0f087d8fd4a756d362d86a9649a07142404e7fd1d77b5848260405161174d929190612559565b60405180910390a17207c93eb56b0e3b81f5632b26499356501bfde573ffffffffffffffffffffffffffffffffffffffff166108fc8390811502906040515f60405180830381858888f193505050501580156117ab573d5f803e3d5ffd5b507f6c114f03096d92b098f0f087d8fd4a756d362d86a9649a07142404e7fd1d77b57207c93eb56b0e3b81f5632b26499356501bfde5836040516117f0929190612559565b60405180910390a150505b7f4c4660db760944215f41e957066d756ad5fd0eed1b4640632322eb06f77b034d838260405161182c929190612580565b60405180910390a17f13f372e8bbb1745f8d34d7cbcbcca1a7937ec806a13225a5db1a97385b3166446001548383606460038661186991906124e8565b6118739190612529565b606460038761188291906124e8565b61188c9190612529565b86611897919061204c565b5f801b426040516118ae97969594939291906125bf565b60405180910390a1505050565b6001805f8282546118cc91906123b0565b925050819055505f60095f6101000a81548160ff0219169083151502179055505f600a8190555060016008819055505f60055f600181526020019081526020015f20819055505f60055f600281526020019081526020015f20819055505f60065f600181526020019081526020015f20819055505f60065f600281526020019081526020015f2081905550565b5f8167ffffffffffffffff81111561197457611973612383565b5b6040519080825280602002602001820160405280156119a25781602001602082028036833780820191505090505b5090505f4284436001546040516020016119bf949392919061224b565b604051602081830303815290604052805190602001205f1c90505f5b83811015611a4c57600582826040516020016119f892919061262c565b604051602081830303815290604052805190602001205f1c611a1a91906122c5565b838281518110611a2d57611a2c611ff2565b5b6020026020010181815250508080611a4490612657565b9150506119db565b508160045f60015481526020019081526020015f205f8673ffffffffffffffffffffffffffffffffffffffff1673ffffffffffffffffffffffffffffffffffffffff1681526020019081526020015f205f019080519060200190611ab1929190611ab8565b5050505050565b828054828255905f5260205f20908101928215611af2579160200282015b82811115611af1578251825591602001919060010190611ad6565b5b509050611aff9190611b03565b5090565b5b80821115611b1a575f815f905550600101611b04565b5090565b5f819050919050565b611b3081611b1e565b82525050565b5f602082019050611b495f830184611b27565b92915050565b5f80fd5b611b5c81611b1e565b8114611b66575f80fd5b50565b5f81359050611b7781611b53565b92915050565b5f60208284031215611b9257611b91611b4f565b5b5f611b9f84828501611b69565b91505092915050565b5f73ffffffffffffffffffffffffffffffffffffffff82169050919050565b5f611bd182611ba8565b9050919050565b611be181611bc7565b82525050565b5f602082019050611bfa5f830184611bd8565b92915050565b5f81519050919050565b5f82825260208201905092915050565b5f819050602082019050919050565b611c3281611b1e565b82525050565b5f611c438383611c29565b60208301905092915050565b5f602082019050919050565b5f611c6582611c00565b611c6f8185611c0a565b9350611c7a83611c1a565b805f5b83811015611caa578151611c918882611c38565b9750611c9c83611c4f565b925050600181019050611c7d565b5085935050505092915050565b5f6020820190508181035f830152611ccf8184611c5b565b905092915050565b5f8115159050919050565b611ceb81611cd7565b82525050565b5f61016082019050611d055f83018e611ce2565b611d12602083018d611b27565b611d1f604083018c611b27565b611d2c606083018b611b27565b611d39608083018a611b27565b611d4660a0830189611b27565b611d5360c0830188611b27565b611d6060e0830187611b27565b611d6e610100830186611b27565b611d7c610120830185611b27565b611d8a610140830184611b27565b9c9b505050505050505050505050565b611da381611bc7565b8114611dad575f80fd5b50565b5f81359050611dbe81611d9a565b92915050565b5f8060408385031215611dda57611dd9611b4f565b5b5f611de785828601611b69565b9250506020611df885828601611db0565b9150509250929050565b5f604082019050611e155f830185611b27565b611e226020830184611ce2565b9392505050565b5f602082019050611e3c5f830184611ce2565b92915050565b5f82825260208201905092915050565b7f47616d65206e6f742061637469766500000000000000000000000000000000005f82015250565b5f611e86600f83611e42565b9150611e9182611e52565b602082019050919050565b5f6020820190508181035f830152611eb381611e7a565b9050919050565b7f4e6f74206a6f696e6564000000000000000000000000000000000000000000005f82015250565b5f611eee600a83611e42565b9150611ef982611eba565b602082019050919050565b5f6020820190508181035f830152611f1b81611ee2565b9050919050565b7f4e6f7420796f7572207465616d2773207475726e0000000000000000000000005f82015250565b5f611f56601483611e42565b9150611f6182611f22565b602082019050919050565b5f6020820190508181035f830152611f8381611f4a565b9050919050565b7f496e76616c6964206361726420696e64657800000000000000000000000000005f82015250565b5f611fbe601283611e42565b9150611fc982611f8a565b602082019050919050565b5f6020820190508181035f830152611feb81611fb2565b9050919050565b7f4e487b71000000000000000000000000000000000000000000000000000000005f52603260045260245ffd5b7f4e487b71000000000000000000000000000000000000000000000000000000005f52601160045260245ffd5b5f61205682611b1e565b915061206183611b1e565b92508282039050818111156120795761207861201f565b5b92915050565b5f6080820190506120925f830187611bd8565b61209f6020830186611b27565b6120ac6040830185611b27565b6120b96060830184611b27565b95945050505050565b7f4e487b71000000000000000000000000000000000000000000000000000000005f52603160045260245ffd5b5f6120f982611b1e565b91505f820361210b5761210a61201f565b5b600182039050919050565b7f456e7472792046656520746f6f206c6f770000000000000000000000000000005f82015250565b5f61214a601183611e42565b915061215582612116565b602082019050919050565b5f6020820190508181035f8301526121778161213e565b9050919050565b7f416c7265616479206a6f696e656420746869732067616d6500000000000000005f82015250565b5f6121b2601883611e42565b91506121bd8261217e565b602082019050919050565b5f6020820190508181035f8301526121df816121a6565b9050919050565b5f819050919050565b6122006121fb82611b1e565b6121e6565b82525050565b5f8160601b9050919050565b5f61221c82612206565b9050919050565b5f61222d82612212565b9050919050565b61224561224082611bc7565b612223565b82525050565b5f61225682876121ef565b6020820191506122668286612234565b60148201915061227682856121ef565b60208201915061228682846121ef565b60208201915081905095945050505050565b7f4e487b71000000000000000000000000000000000000000000000000000000005f52601260045260245ffd5b5f6122cf82611b1e565b91506122da83611b1e565b9250826122ea576122e9612298565b5b828206905092915050565b7f47616d652069732066756c6c202d206f6e6c79203220706c617965727320616c5f8201527f6c6f776564000000000000000000000000000000000000000000000000000000602082015250565b5f61234f602583611e42565b915061235a826122f5565b604082019050919050565b5f6020820190508181035f83015261237c81612343565b9050919050565b7f4e487b71000000000000000000000000000000000000000000000000000000005f52604160045260245ffd5b5f6123ba82611b1e565b91506123c583611b1e565b92508282019050808211156123dd576123dc61201f565b5b92915050565b5f6060820190506123f65f830186611b27565b6124036020830185611bd8565b6124106040830184611b27565b949350505050565b7f47616d6520616c726561647920616374697665000000000000000000000000005f82015250565b5f61244c601383611e42565b915061245782612418565b602082019050919050565b5f6020820190508181035f83015261247981612440565b9050919050565b7f4e6565642065786163746c79203220706c617965727320746f207374617274005f82015250565b5f6124b4601f83611e42565b91506124bf82612480565b602082019050919050565b5f6020820190508181035f8301526124e1816124a8565b9050919050565b5f6124f282611b1e565b91506124fd83611b1e565b925082820261250b81611b1e565b915082820484148315176125225761252161201f565b5b5092915050565b5f61253382611b1e565b915061253e83611b1e565b92508261254e5761254d612298565b5b828204905092915050565b5f60408201905061256c5f830185611bd8565b6125796020830184611b27565b9392505050565b5f6040820190506125935f830185611b27565b6125a06020830184611b27565b9392505050565b5f819050919050565b6125b9816125a7565b82525050565b5f60e0820190506125d25f83018a611b27565b6125df6020830189611bd8565b6125ec6040830188611b27565b6125f96060830187611b27565b6126066080830186611b27565b61261360a08301856125b0565b61262060c0830184611b27565b98975050505050505050565b5f61263782856121ef565b60208201915061264782846121ef565b6020820191508190509392505050565b5f61266182611b1e565b91507fffffffffffffffffffffffffffffffffffffffffffffffffffffffffffffffff82036126935761269261201f565b5b60018201905091905056fea26469706673582212208b549b328512cd1726467f545de56ff0e1fd05849f2b89ee7453a2dcb362a05964736f6c63430008140033",
  "linkReferences": {},
  "deployedLinkReferences": {},
  "immutableReferences": {},
  "inputSourceName": "project/contracts/CardGame.sol",
  "buildInfoId": "solc-0_8_20-95be8d54bd31d3ce27d17061327caadb40bca611"
}